:020000040800F2
:10000000E81300207D020008455300083D4C00081D
:1000100000000000000000000000000000000000E0
:10002000000000000000000000000000095D000862
:1000300000000000000000009B5C0008895E0008D2
:100040008F0200088F0200088F0200088F0200084C
:100050008F0200088F0200088F0200088F0200083C
:100060008F0200080D2400088F0200088F0200088C
:100070008F0200088F0200088F0200088F0200081C
:100080008F0200088F0200088F02000800000000A5
:100090008F0200088F0200088F0200088F020008FC
:1000A0008F0200088F0200088F0200088F020008EC
:1000B0008F0200088F0200088F0200088F020008DC
:1000C00000F002F800F0CBF812A030C8083824186D
:1000D0002D18AC4201D100F0C2F80FCCA246AB46BD
:1000E0000CA730CF2D1B083F3F197C427F1E544484
:1000F0002D090426F441641EAC4201D300F0AFF890
:100100000126334200D0FB1A3343984754465D46DC
:10011000DFE70000F46F000014700000103A02D313
:1001200078C878C1FAD8520701D330C830C101D598
:1001300004680C6070470000704700000023002432
:1001400000250026103A01D378C1FBD8520700D30E
:1001500030C100D50B60704710B56E2902D100F098
:100160000BFC10BD702902D100F045FD10BD6629C1
:1001700002D106F0CFFE10BD652902D106F0CAFEFD
:1001800010BD672902D106F0C5FE10BD612902D15C
:1001900006F0C8FE10BD03681B0A01D38023194373
:1001A000692902D100F0B2FB10BD642902D100F030
:1001B000ADFB10BD752902D100F0A8FB10BD6F2961
:1001C00002D100F0C3FC10BD782902D100F000FD7F
:1001D00010BDE92902D100F05FFC10BDE42902D175
:1001E00000F05AFC10BDF52902D100F055FC10BDFD
:1001F000EF2902D100F0B6FC10BDF82902D100F0C1
:10020000F5FC10BD0368DB0901D380231943632982
:1002100002D101F0D8F910BD732902D101F0DBF948
:1002200010BDE32902D101F0E5F910BDF32902D197
:1002300001F0E8F910BD002010BD1FB501F076FAFD
:1002400004000020002106F0F5FC401C6060002046
:10025000002106F0D9FCE0601FBD10B510BD01F013
:100260003DFA1146FFF7E9FF06F0DCFB01F0D2FD95
:1002700003B4FFF7F2FF03BC01F06CFE07488047B0
:1002800007480047FEE7FEE7FEE7FEE7FEE7FEE77A
:1002900004480549054A064B704700002D5F0008D9
:1002A000C1000008E8070020E8130020E80B002048
:1002B000E80B0020FEB5044610460D46184373D0E7
:1002C000A6468C460020A41A01469D4167D3664687
:1002D000002701243D46B61A9D4102D313463A46F3
:1002E0002124654676462F04360C3E432D0CB61A63
:1002F0009D4104D3150C1B042B4312041034654696
:1003000076462F06360A3E432D0AB61A9D4104D37F
:10031000150E1B022B4312020834654676462F0742
:1003200036093E432D09B61A9D4104D3150F1B0112
:100330002B431201241D65467646AF07B6083E439F
:10034000AD08B61A9D4104D3950F9B002B43920034
:10035000A41C65467646EF0776083E436D08B61A3C
:100360009D411AD392185B41641C16E00018764632
:1003700065464941B71A9D410191009009D36046F5
:10038000B11A98418E468446009801990025401C78
:100390006941DD0752082A435B08641EE6D57246B0
:1003A000634603B0F0BDFFE72046284307D0002096
:1003B000C0430146C046C04622462B46F1E7002016
:1003C0000146F7E70FB41CB5084B06AA7B44694603
:1003D0000090059800F0E9FA04460020694600F014
:1003E000F7FA20461CBC08BC04B018470106000000
:1003F00030B5441C03E00178401C00290DD0810772
:10040000F9D10B4BDD0104C8D11A91432940FAD030
:10041000001B0A0603D0C01E30BD001B30BD0A04FD
:1004200001D0801E30BD0902FCD0401E30BD00004E
:100430000101010101E004C0091F0429FBD28B075F
:1004400001D50280801CC90700D0027070470029C6
:100450000BD0C30702D00270401C491E022904D3EE
:10046000830702D50280801C891EE3E70022EEE7A5
:100470000022DFE7002203098B422CD3030A8B42C0
:1004800011D300239C464EE003460B433CD400228C
:1004900043088B4231D303098B421CD3030A8B429E
:1004A00001D394463FE0C3098B4201D3CB01C01A6C
:1004B000524183098B4201D38B01C01A5241430937
:1004C0008B4201D34B01C01A524103098B4201D325
:1004D0000B01C01A5241C3088B4201D3CB00C01A92
:1004E000524183088B4201D38B00C01A524143080A
:1004F0008B4201D34B00C01A5241411A00D201462F
:100500005241104670475DE0CA0F00D049420310C7
:1005100000D3404253409C46002203098B422DD316
:10052000030A8B4212D38901FC2212BA030A8B42BE
:100530000CD3890192118B4208D3890192118B420D
:1005400004D389013AD0921100E08909C3098B4292
:1005500001D3CB01C01A524183098B4201D38B01D5
:10056000C01A524143098B4201D34B01C01A524178
:1005700003098B4201D30B01C01A5241C3088B42BD
:1005800001D3CB00C01A524183088B4201D38B00A8
:10059000C01A5241D9D243088B4201D34B00C01A32
:1005A0005241411A00D201465241104663465B1047
:1005B00001D34042002B00D54942704763465B108F
:1005C00000D3404201B50549002802DC491C08401F
:1005D00000E00846C046C04602BD00BFFFFFFF7FE7
:1005E00070477047704700000121C9050123411879
:1005F00042001B06D3185B0E0AD0C1100722D20698
:10060000891840075242D14201D5520089187047DB
:10061000090208D50146002A03D0C10FC9070020EE
:10062000704710467047420202D0002002497047CE
:10063000072109050143F4E70000F87FF0B5FF2525
:100640002D04C609C209FF2704462E400137CB09F5
:100650003E4348402A402B400746002A6BD0002BDF
:1006600069D0AA4267D0AB4265D0002800DA324692
:100670000125ED0529432C4309022002090AD21A5B
:100680004B0C7F24E31A434C000A7C44E35C7D243A
:100690002404121914145B00A218884201D3521CBE
:1006A00000E0400049420C465C4324115C43DB01FE
:1006B0006415E318040A5C43C502200D0C4644434C
:1006C0006419250A5D432303EC0C0D4665430003C2
:1006D0000019EB184C42A34201D35B18401CD4050F
:1006E0002018002B07D05B00C91804D3401C002938
:1006F00001D1400840003F2189048A4209D3002AE1
:1007000008DC1106090F04D0032149074018C00F67
:10071000C007F0BD01224100120689187F2252064F
:100720009142F6D205214907C84201D59010F0BD8B
:10073000FF20C005F0BD002F00DA32461648AA425D
:1007400007D2AB4205D21902090E17D0F80FC00725
:10075000F0BDFF2563002D06AB42F9D84900A94240
:10076000F6D8AB4201D1A942F2D0A94201D1002171
:1007700001E061004908D0050843F0BD1102090EEF
:10078000FBD0FF200243D005F0BD0A4601461046CB
:1007900054E70000A66800000000C07F10B50146C5
:1007A0009E240002CA15A307002A02D01843002A7B
:1007B00004DBA21A002A0CDDD04010BD1206120E76
:1007C00001D140004008A21A03D4D0404042002882
:1007D000F3DDFF2248001206904201D9002010BD2F
:1007E000C817C043584010BD1F22030C02D10F226E
:1007F00000041CD0030E01D10002083A030F01D1FE
:100800000001121F830F01D18000921E002801DB1E
:100810004000521ED2055118021251181922904060
:1008200004D3491C002801D14908490008467047F3
:10083000C10FC90700D04042012292071143D3E7FC
:1008400001218907D0E770B5044685690068C106B3
:1008500001D5302600E02026C00707D070BD6268B1
:100860003046A1689047206A401C20626D1EF6D574
:1008700070BD70B5044685690078C00707D170BDAA
:100880006268A16820209047206A401C20626D1E8B
:10089000F6D570BD09684A0501D540B27047C90553
:1008A000FCD500B2704709684A0501D5C0B270474F
:1008B000C905FCD580B2704770B50C460546012AC3
:1008C00005D02878800600D5EA69002302E00123DC
:1008D00005E05B1C934202D2E05C0028F9D1A869D4
:1008E000E618C01AA861286AC01828622846FFF7CF
:1008F000AAFF04E06A682078A968641C9047B442A3
:10090000F8D32846FFF7B5FF70BD0000F7B5002506
:1009100075291068009914A611D0FFF7BBFF0028B5
:1009200002DA404211A608E0009909688A0701D559
:100930000FA602E0490704D50EA6012501E0FFF746
:10094000B2FF009F0024243704E000F080FE303125
:100950003955641C0028F8D12B46324621460098B0
:1009600000F057FAFEBD0000000000002D0000005E
:100970002B0000002000000011680268006A530587
:1009800001D5087009E0D30501D5088005E01306FC
:1009900002D5C21705C100E00860012070470000C1
:1009A00001694A1C02610878704700B58FB0029156
:1009B0000021059105490193794403911146049062
:1009C000684600F025F90FB000BD0000E5FFFFFF0D
:1009D0000A681070521C0A6070470000F7B50446A0
:1009E000154686B02B487844002703C83E46009041
:1009F000019111E007986A467100415A02A800F07F
:100A000005FE411C07D02178890603D5E269391813
:100A100091420ED83F18761C2078800602D5E069F6
:100A2000B84206DDAE42E5DB07987100405A002867
:100A3000E0D1A069C01BA0612046FFF704FF154864
:100A400078445A3803C800900020019116E0410014
:100A50006A460798415A02A800F0D8FD0590401C4C
:100A60000AD0002505E0626802A8A168405D9047B1
:100A70006D1C05988542F6D30498401CB042049042
:100A8000E5DB206AC01920622046FFF7F2FE09B0BC
:100A9000F0BD00008A650000F7B5D21D0025D20820
:100AA00015A6D200F52905CA11D0002A05DA0021C1
:100AB0004042914111A60A4608E0009909688B0757
:100AC00001D50FA602E0490701D50EA60125114662
:100AD000009F0024243704E000F05EF930323A55DC
:100AE000641C02460A43F7D12B4632462146009841
:100AF00000F08FF9FEBD0000000000002D00000096
:100B00002B0000002000000070B5044600212434B2
:100B100008E05507D2086D0F303565545D072A434C
:100B2000DB08491C15461D43F3D10468002310A2BD
:100B3000250708D520252C400C4304D0C469012387
:100B40000CA2641EC46100F064F970BD10B50446C7
:100B500021461068FFF7A7FE002302462046FFF754
:100B6000D3FF10BDD21DD108C9000CC9CCE70000CD
:100B70000000000030000000F8B50F4601880905AC
:100B800002D5224C7C4402E0204C7C440E340546C5
:100B90000021243508E016071209360FA65D6E54B1
:100BA0001E0732431B09491C16461E43F3D1224639
:100BB00004780023240705D5702F06D0002901D022
:100BC0000223113200F025F9F8BD01231032F9E7B4
:100BD00070B504460D4621461068FFF764FE0023F9
:100BE000024629462046FFF7C7FF70BDD21DD30835
:100BF000DB000CCBC0E730B4036820241268234329
:100C000003600823C36130BC0023B5E7F463000030
:100C1000F3B50446002081B020622046E168884791
:100C2000002872D0252802D06268A168ABE0594F35
:100C300000267F442046E16888472028054608DBD7
:100C4000312D06D2781920380078002801D00643CB
:100C5000F0E7B00701D5042086430020E061074695
:100C6000A0612A2D0AD0284605F0C7FF002827D00A
:100C7000B8000019303D0090856119E00298BA0073
:100C8000121902C8916102902046E1688847012F3D
:100C9000054617D1E06900281FDA202086431CE0B2
:100CA00000980A21806948430099401930388861CA
:100CB0002046E1688847054605F09FFF0028EFD1F0
:100CC000012F0AD02E2D08D12046E168884705461D
:100CD000202006437F1C022FC3DBA069002803DA13
:100CE0004042A06101200643F00701D01020864356
:100CF0006C2D0BD0682D09D04C2D3CD06A2D38D0EE
:100D0000742D38D07A2D36D016E040E0E1682F46B9
:100D100020468847B842054609D16C2F29D00120CA
:100D20008002E168064320468847054604E06C2FB0
:100D30001DD0FF2001300643002D28D02846413821
:100D4000192803D80120C00206432035204626601A
:100D50002946029A1646FFF7FFF9002810D001280D
:100D60000BD0F61DF008C0000830029055E7402077
:100D7000E1E78020D5E70020D3E7361D02964CE757
:100D800062682846A1689047206A401C44E7206AB0
:100D9000FEBD00006E6300000B4670B50246890779
:100DA0008008084319469D08141AA9412509080717
:100DB000054308092C194841250A01060D43010A7B
:100DC0002C194141200C0D0428430D0C00194D41F4
:100DD000002140194D41C00869070843E908840F04
:100DE0008D002543840024184D4124196D41121BA8
:100DF000AB4107E00925ED432C1152196341002452
:100E0000401C61411C460A250026551BB441F1D205
:100E100070BDFFB504460D4681B0243000902168B6
:100E2000880604D51022E0699143216000E001208A
:100E3000A84201DD471B00E000270498A1697A1948
:100E40001018081AA0612078C00602D42046FFF7C7
:100E5000FAFC002608E003986268A168805D90476C
:100E6000206A401C761C206204988642F3DB2078BE
:100E7000C0060AD52046FFF7E6FC06E06268A168D6
:100E800030209047206A401C206238467F1E002890
:100E9000F4DC07E000986268A168405D9047206A32
:100EA000401C206228466D1E0028F3DC2046FFF718
:100EB000E0FC2078000602D5022005B0F0BD01203C
:100EC000FBE70000FFB50C461E468FB003CA089032
:100ED00009914F007D0D00D16D1E002108460020B4
:100EE000C0460321099A89050840002A03DA8200D6
:100EF000801840080840800D01280A9002DD00207B
:100F0000C0430A90089807430DD0F048F0492818CC
:100F100048430714189800281DD07542291E1DDD6E
:100F20000A9842421BE01898012802D00020302184
:100F300004E00020F24305E02154401CB042FBDBFA
:100F400030460022189B002121540F998B600A60C3
:100F5000486013B0F0BDBD1B6D1CDFE70A9A002985
:100F600000DA69420BA800F029FC0BAB07CB03ABFE
:100F700007C30899099800F08DFC6B4607C301462A
:100F8000D4480918002D00910BDDD24903980A9A24
:100F900049424018002303A90390684600F0EAFE86
:100FA00008E003990A9A0023081803A903906846E9
:100FB00000F08AFE6B4607C30004000C03D000203B
:100FC000C043410800E01046189A002A03D00022CE
:100FD000009215461EE0751E05D4FFF7DDFE303287
:100FE00062556D1EF9D501220843079602D00022F2
:100FF0007F1C04E02078302801D100227F1E002AC7
:10100000069787D01EE0112D07DAFFF7C5FE3032B4
:1010100062556D1C02460A43F5D1084303D000987F
:10102000002819D00EE00021681E05E0235C625CF8
:1010300063542254401E491C8142F7DBA81B401E0A
:1010400007950690079A18990020A0540F98079BBF
:10105000069A81600CC07CE711260020189059E7A1
:10106000D21DF0B50D460446D10893B0C90003C99E
:101070000C900D9105F088FD02460D98C00F01D02F
:101080002D2007E02068810701D52B2002E04007D2
:10109000C00F4001032A0F9001D0072A05DB034649
:1010A0002946204600F046FB0EE12078800601D557
:1010B000E76900E006272846652D04D0662814D08D
:1010C000672D69D12DE00020112F009001DB112345
:1010D00000E07B1C0CAA03A910A8FFF7F3FE1199EE
:1010E000002610987D1C0E9142E001203B460CAA80
:1010F000C0070B900120009003A910A8FFF7E2FEA3
:10110000119D12981099002600280E9501D1781C87
:101110000D18781B02D446427D1C761EE81B0090F9
:101120003AE0012F00DA01270020112F009001DDA5
:10113000112300E03B460CAA03A910A8FFF7C2FE4A
:1011400011993D46109800260E91217809070BD47D
:101150000E99A94200DA0D4603A9012D04DD4A19B2
:10116000203AD27F302A06D0B84201DA011D04DAD3
:10117000012100910FE06D1EEFE7002802DC8619C7
:101180002D1A03E0411CA94200DD0D46801B401CC6
:1011900000900120C0070B902078000705D400982C
:1011A000A84202DB0020C043009069460020C872BC
:1011B0000B98012102AF0337C907884225D00220CE
:1011C00010902B2011900B9800280BDA40420B90C6
:1011D0002D20119006E00B9800F039FA30317F1E77
:1011E0000B9039701099481E00291090F3DC0B9871
:1011F0000028F0D111987F1E38702088000501D595
:10120000452000E065207F1E387001A8C01BC01D6E
:101210000B900F98002800D0012041190098C017AA
:1012200009180B980818A169081A401EA0612078B7
:10123000C00602D42046FFF706FB0F98002805D011
:101240006268A1689047206A401C20622078C0062E
:1012500025D52046FFF7F7FA21E0002E07DB0E9890
:10126000B04204DD03A86268805DA16802E06268A4
:10127000A16830209047206A761C401C20620098AC
:10128000401E002800900AD100F050FAC068626841
:101290000168405CA1689047206A401C2062284693
:1012A0006D1E0028D9DC07E062683878A1687F1CD1
:1012B0009047206A401C20620B99481E00290B9021
:1012C000F2DC2046FFF7D5FA032042E601FCFFFFDF
:1012D000104D0000E1DFFFFFD21DF0B504460D46C2
:1012E000D0088DB0C000466807683146384605F022
:1012F0004BFC0246F00F01D02D2307E02068810748
:1013000001D52B2302E04007C00F43016846002BA4
:10131000037001D0012000E00020032A0A9001D0D0
:10132000072A04DB2946204600F004FA2DE1207844
:10133000800601D40D2500E0E5697000400D0D2DFB
:1013400001904BDA300D00210B9008460020C0467A
:10135000032189050840002E05DA82008018C20F9B
:101360001018401008408015012801DD0020C043FE
:10137000A9000023182906D39C460A460123183ADF
:101380001B07D34003E001221205CA4094460C31EA
:10139000202902D33A46203900E032468A4000280C
:1013A00002DD002A06D119E0002817D10121C90762
:1013B0008A4213D3194663467F185E41002806D13E
:1013C0000120C007824202D1084687439E430B9802
:1013D000310D814202D00198401C01902088000507
:1013E00002D57149794402E06F49794419396B4655
:1013F0000A9830221A540A980A7C401C1A54401C3D
:101400000A900198002801DC302000E03120187299
:10141000019A0120002A02D0644BD21804E0720025
:101420003A4302D0614A521C0192002D02DC22781C
:10143000120703D56A462E205072022000228646EB
:1014400094460CE032033601120F6D1E8B5C02AA2B
:1014500013546246521C401C9446052A01DA002DA2
:10146000F0DC002202AE08E03B0F3F01CB5C521CD7
:101470006D1E3354401C082A01DA002DF4DC236869
:101480009A0601D511E0401E704504DD3218203A5D
:10149000D27F302AF7D0002807DD3218203AD27FD9
:1014A0002E2A02D11A0700D4401E002D03DD3E2251
:1014B0003254401C6D1E497C31540199401C002956
:1014C00006DA2D21471C315401984042019003E077
:1014D0002B21471C315401987D21C900884206DB2D
:1014E000FEF7D2FF3030F0557F1C019101E06428F7
:1014F00008DB01986421FEF7C7FF3030F0557F1CF0
:10150000019101E00A2806DB01980A21FEF7BCFFE1
:101510003030F0557F1C01980A21FEF7B5FF3031BD
:10152000F1550A98A1697F1C7A191018081AA06150
:101530002078C00602D42046FFF785F9216A6E465E
:101540000A980818206204E062683078A168761C66
:1015500090470A98401E0A90401CF5D12078C0069A
:1015600002D52046FFF76FF902AE09E03078761C0D
:101570003E280DD06268A1689047206A401C206216
:101580007F1EF3D22046FFF774F90DB00320F0BDA3
:10159000206A4019206203E06268A1683020904709
:1015A0006D1EEDD3F8E70000E05B000001FCFFFFDB
:1015B00010B54369002B02D0C046C04601E0FFF7DA
:1015C0007BF9012010BD1278014624310A700022F7
:1015D0004A700122ECE711680022D243E8E710B517
:1015E0004369002B02D0C046C04601E0FFF7F6F980
:1015F000012010BD12880146243182840022C28459
:101600000122ECE711680022D243E8E7F8B516465C
:101610000C46054600F082F80368FF200230C05CEB
:10162000012807D0FF2C0FD8185D00280CD001200E
:101630002C70F8BDFF333246214608331868C718AE
:1016400028460023B847F8BD0020C043F8BD014636
:101650008008081A02091018020A1018020C101843
:10166000C008820012185200891A01E0401C0A3991
:101670000A29FBD27047000010B5FF231B06440067
:101680009C421DD84C009C421AD80346124A0B4378
:1016900007D4401A02D3EFF3008010BDEFF30080AF
:1016A00010BD081A03D3EFF30080904305E0EFF379
:1016B000008001219043C907084380F3008810BDD2
:1016C0000D231B041A4204D01146002000F0AAFB8F
:1016D00010BD00F0BFFB10BD00000090754600F08B
:1016E000C1FBAE46050069465346C008C0008546AA
:1016F00018B020B5FEF7CCFD60BCB646002600272A
:10170000C0C5C0C5C0C5C0C5C0C5C0C5C0C5C0C5B1
:10171000403D490849008D467047000010B500F073
:1017200005F8001D10BD00BF0D55000000487047B2
:1017300030000020F8B51F46044601230068DB0294
:10174000032601461840072A05DB002801D017A50B
:1017500006E017A504E0002801D016A500E016A5B4
:10176000102081432160A069C01E002FA06101D01C
:10177000401EA0612046FFF766F8002F09D03846CA
:101780006268A1689047206A401C2062C01C2062E9
:1017900006E0206AFAE762682878A1686D1C904725
:1017A000761EF8D22046FFF764F8F8BD4E414E0091
:1017B0006E616E00494E4600696E6600F7B51646CA
:1017C0008AB0334878446C4603467C33C06F5A680D
:1017D0009B680DC42E487844763003AC0DC80DC408
:1017E0003720C001081837211B30FEF74DFE054693
:1017F0000C46803D1B3C02D56442012000E00020E5
:101800000027099010E0E0070CD00C202049784315
:10181000794432464C3941186846012300F054FAA5
:101820006B4607C364107F1C002CECD1184F7F441B
:101830002E3F16E0E80712D02001C0190EC806910D
:10184000089307920068F04201D198190890324637
:10185000012306A903A800F037FA03AB07C36D10F4
:10186000641C002DE6D10998002806D0324669464E
:10187000012303A800F07EFA05E001233246694601
:1018800003A800F021FA0A9B07C30DB0F0BD0000C9
:1018900014580000034640000A4610B5400D0BD016
:1018A0000121C9070F24A40200191C036408214365
:1018B000540D2143D20207E000210120F2E7D40FAA
:1018C000490021435200401E0029F8DADB0FDB07F4
:1018D000184310BDFFB50D46144685B048685168E1
:1018E00005F039F900910190A868A16805F033F975
:1018F00002910390A868616805F02DF9029A121808
:101900008242029201D2012000E00020019A0B18CD
:10191000D2180028019202D08A4202D903E08A42FA
:1019200001D2012000E000200099081800906868AA
:10193000A16805F010F9029A12188242029201D2AF
:10194000012000E00020019A0B18D2180028019213
:1019500002D08A4202D903E08A4201D2012000E08B
:10196000002000990818009028682168400049006C
:10197000400849084018FA49471814E00199400006
:10198000C90F08430090019802994000C90F08430D
:101990000190029803994000C90F084302900398F0
:1019A00040007F1E039000980028E7DA089800287E
:1019B00001D0EC4E00E00026B74201DA012000E041
:1019C0000020002804902AD0F71BF806C00E15D07E
:1019D000029B2021091A039A8B401A430392029A10
:1019E000019BC2408B401A430292019A009BC24065
:1019F0008B4000991A430192C14000917B110DD098
:101A00006F460320C11A03D500218200B95003E0BC
:101A10008A008100BA587A50401EF3D537460398A1
:101A20000299002800D00120014308980291002863
:101A300008460CD0002800D001200199019A4905E0
:101A400008430121D20AC902D202019200E0012119
:101A50000E9B0122D207012B02D0002B03D013E0F2
:101A6000002807D120E0904204D890420CD1019B7D
:101A70000B4209D0019B5918019105D10099491CCD
:101A8000009101D17F1C009200280DD01021084642
:101A90000020C0460498002806D00F98002803D0E4
:101AA000082108460020C04628682168019B009A4A
:101AB0004840C10F0598C90739430EC009B0F0BDB1
:101AC000FFB587B0099A08980899536892684068EA
:101AD000896896460022039317469446089A12682E
:101AE0005300099A5B081268520052089A1A9E4BDA
:101AF000D4180A9A002A01D0352200E0402206922A
:101B00000022012315460492DB07059324E0002DF3
:101B100005D175460346039E4D1BB34109D3754657
:101B20006646039B491B049D9841059B7519AC466D
:101B30005F4163463B4308D0059B049EDD07760862
:101B40002E435B080496059301E0521E641EC50FE8
:101B5000ED0749184041521C069B9A42D7DB002DE5
:101B600004D17546039A6B1A824101D203200CE01E
:101B7000039A0B466B404240134303D0014303D00A
:101B8000012002E0022000E00020614601910021D6
:101B9000009702910A99002905D06146400201434D
:101BA000704B019102E08007002302909C4201DA11
:101BB000012000E0002007003AD01A1BD006C00E1A
:101BC00015D0029D2021019C091AC5408C40254357
:101BD000029C8C4000D001242543019C0295009D6D
:101BE000C4408D4000992C430194C1400091541190
:101BF0001DD06D460221002202290CD10320001BBA
:101C000007E0002804DB8600AE59002E00D0012238
:101C1000401C0328F5DB081B02D588002A5004E08D
:101C20008000285810438A00A850491EE3D51C465E
:101C30000A98002802980CD0002800D001200199B1
:101C4000019A490508430121D20AC902D202019230
:101C500000E00121109B0122D207012B02D0002BB2
:101C600003D013E0002807D11FE0904204D890422F
:101C70000CD1019B0B4209D0019B5918019105D150
:101C80000099491C009101D1641C009200280CD0DD
:101C9000102108460020C046002F06D011980028C9
:101CA00003D0082108460020C04608980999019AE7
:101CB000009B006809684840C10F0798C907214385
:101CC00082600AC00BB0F0BD00B585B001930092F0
:101CD0000A460146002302A8FFF7FCFD02A807C838
:101CE00005B000BDFFB50A461F4685B007990193B0
:101CF00001230091014602A8FFF7ECFD0299039829
:101D0000049ECA0F4900D20700920F22490892028E
:101D10008C1A0021002800DB0C46450013486D0892
:101D2000844214D3079A002A04DA441E0026104D78
:101D3000F64302E004460D460E46102108460020F8
:101D4000C046002F03D0042108460020C0462005CD
:101D5000E90A0843009908436905F20A1143ADE610
:101D600002C0FFFF013C0000FF3F0000FF07000032
:101D7000FFFFFF7F00B585B0019300920A46014640
:101D8000002302A8FFF79CFE02A807C8A8E7FFB53A
:101D90000A461F4685B00799019301230091014629
:101DA00002A8FFF78DFE02990398049ECA0F49000E
:101DB000D20700920F22490892028C1A00210028B3
:101DC00000DB0C46450011486D08844214D3079A85
:101DD000002A04DA441E00260D4DF64302E00446B4
:101DE0000D460E46102108460020C046002F03D0A5
:101DF000042108460020C0462005E90A084300994E
:101E000008436905F20A114358E60000FF07000085
:101E1000FFFFFF7F10B50446C046C0462046FEF7D0
:101E200027FA10BDC80212D54803400F002804D07D
:101E3000C803C043012188407047EFF300800001D0
:101E4000000903210907084380F300887047002038
:101E50007047000010B5024800F04CF810BD0000BB
:101E60000000C07F0048704710000020024670B597
:101E70000A4392072AD11E4DEE0104C808C9541B1B
:101E80009443344017D0D0B2D9B2401A210601434E
:101E900010D190B299B2401A210401430AD1100224
:101EA0001902000A090A401A2102014302D1100E48
:101EB000190E401A70BD9A42DFD010BA19BA884282
:101EC00001D9012070BD0020C04370BD02780B789D
:101ED000401C491C002A09D09A4207D102780B788D
:101EE000401C491C002A01D09A42EFD0D01A70BD84
:101EF0000101010110B50C461107090F092904D091
:101F00000A290AD008290CD104E011460820FFF75D
:101F100089FF06E0510606D501E0510601D50120F2
:101F2000C007214610BDD10607D501010909CC081B
:101F30004907000E0006044309E0410F200249074B
:101F4000000A0143200E00061D22D141014308462C
:101F5000E7E7000001491820ABBEFEE726000200BB
:101F6000704780B584B0029000200190029800680C
:101F700080684007002804D4FFE70020002804D12F
:101F800041E0002000283ED1FFE702980068806809
:101F9000400700280ED5FFE7029800688068800798
:101FA000002807D4FFE702980168886810221043D0
:101FB0008860FFE701F00AF90190FFE702980068E6
:101FC0008068400700281DD5FFE701F0FFF8019960
:101FD000401A0B2815D3FFE7029800688068400775
:101FE00000280DD5FFE70299486D1022104348657F
:101FF000029A916D01200143916503A9087006E0E2
:10200000FFE7DBE7FFE703A900200870FFE703A86D
:10201000007804B080BD000080B584B003900398C0
:102020000190094800680949FEF724FA01994843DC
:102030000290FFE70298002804D0FFE70298401EB4
:102040000290F7E704B080BD0000002040420F007E
:1020500080B584B0029000200190029909688968D7
:10206000032211400129009005D1FFE70298006882
:1020700000680090FFE70098C00700284BD0FFE7FA
:102080000298006880680521084001280DD1FFE70B
:10209000FFE702980168886802221043886002986E
:1020A000016803200860FFE70CE00299486D1022E8
:1020B00010434865029A916D01200143916503A97F
:1020C00008702CE001F082F80190FFE702980068A8
:1020D0008068C00700281DD0FFE701F077F801995C
:1020E000401A0B2815D3FFE7029800688068C007E4
:1020F00000280DD0FFE70299486D10221043486573
:10210000029A916D01200143916503A9087006E0D0
:10211000FFE7DBE7FFE703A900200870FFE703A85C
:10212000007804B080BD000080B584B0029000202B
:1021300001900299096889680322114001290090E1
:1021400005D1FFE70298006800680090FFE700985B
:10215000C007002845D1FFE702980068806825493C
:1021600008420DD0FFE70299486D102210434865E0
:10217000029A916D01200143916503A9087034E032
:10218000029802689168012001439160FFF744FFC3
:1021900001F01CF80190FFE7029800680068C00792
:1021A00000281DD1FFE701F011F80199401A0B2812
:1021B00015D3FFE7029800680068C00700280DD11A
:1021C000FFE70299486D102210434865029A916D0D
:1021D00001200143916503A9087006E0FFE7DBE7F2
:1021E000FFE703A900200870FFE703A8007804B008
:1021F00080BDC0461700008080B59AB000201990BD
:10220000189017AA7249118016A908801590FFE747
:102210001598C72841DCFFE7012003F03FFD159921
:102220004A00704906918852774803F037FD0699B5
:102230000246159843006D48C252159A52008A5AB8
:1022400019998918199115994900425A18998918AC
:10225000189115994900405A17A90988884207DA48
:10226000FFE7159841006148405A17A90880FFE729
:10227000159841005D48405A16A90988884207DD33
:10228000FFE7159841005948405A16A90880FFE712
:10229000FFE71598401C1590BAE71998FEF7D0FA99
:1022A0004C490591FEF7CAF914901898FEF7C8FA40
:1022B0000599FEF7C3F9139017A80088C92810DB09
:1022C000FFE716A80088444988420ADCFFE7434933
:1022D00001200870444812901398119043481090C0
:1022E00009E03E49002008703D4812901498119072
:1022F0003C481090FFE700200F900E900D90FFE7F4
:102300000D98C7283ADCFFE710980D994900405A0C
:10231000FEF796FA119904F095FD0C900C9804F0D4
:10232000D5FB0E9904F05CFC002805D1FFE70C9862
:1023300004F0CCFB0E90FFE70C982D4904F02AFD29
:102340002C49FEF77BF90B900B98039012982A49C1
:1023500004F020FD01460398FEF770F90A900A99EF
:102360000F980490084604F015FD049904F078FCD9
:102370000F90FFE70D98401C0D90C1E70F9815498D
:10238000FEF75CF904F0B8FB09900E98184904F0C8
:1023900001FD1849FEF752F908900898019012982B
:1023A000154904F0F7FC01460198FEF747F907903C
:1023B00009981249029104F0EDFC0299104A10604C
:1023C000079804F0E7FC0F4908601AB080BDC046CA
:1023D000FF0F000000004843360F000004000020FB
:1023E000F628BC3F680100200000A841CC03002073
:1023F0003333534000F07F450000204100007A4411
:10240000C4030020C00300200200000480B502487D
:1024100000F0EBFB80BDC046CC00002081B0EFF3A4
:10242000108072B60090FFE7FEE7000080B584B030
:102430000390029102980F4904F0ACFC3F21090679
:1024400004F00EFCFEF7AAF901900198002803D5CC
:10245000FFE700200190FFE70398009001986421B6
:10246000FEF712F8024600980B460349FDF7AAFF53
:1024700004B080BD0000C8420071000880B584B07F
:1024800002900191FFE702985021405C012804D19D
:10249000FFE703A90220087093E00299502201206F
:1024A0008854FFE7FFE7029800688068042108402D
:1024B000800800280FD0FFE70299486D20221043C2
:1024C0004865FFE70299502200208854FFE703A9DE
:1024D0000120087075E0019840683C49884234D07A
:1024E000FFE7019802683B48024002980168886A49
:1024F0001043886201988078400700280AD5FFE7DA
:10250000E34908680122D205104308600A20FFF75A
:1025100083FDFFE7019880788007002807D5FFE753
:10252000DB4908680122920510430860FFE7019823
:102530008078C007002807D0FFE7D5490868012246
:10254000120610430860FFE731E001980068C243BB
:102550001F48024302980168886A10408862019807
:1025600080784007002807D5FFE7C949086801229D
:10257000D20590430860FFE7019880788007002823
:1025800007D5FFE7C2490868012292059043086019
:10259000FFE701988078C007002807D0FFE7BC4913
:1025A00008680122120690430860FFE7FFE7FFE793
:1025B0000299502200208854FFE703A900200870E8
:1025C000FFE703A8007804B080BDC04601100000FA
:1025D0000000F8FFFFFF070081B00090009800683E
:1025E000006C01B07047000080B584B00290029882
:1025F000002804D1FFE703A90120087043E10298F5
:10260000406D00280AD1FFE70299002088650299F1
:1026100050228854029800F03FF9FFE70298406D7D
:1026200010210840102809D0FFE702980068806850
:1026300004210840800800280FD0FFE70299486D68
:10264000102210434865FFE7029950220020885469
:10265000FFE703A90120087015E10298406D0221EF
:1026600008430121090288430299486502980068DD
:1026700081680320014000200129019005D1FFE776
:102680000298006800680190FFE70198C0070028E1
:1026900045D1FFE7FFE70298406803218907884298
:1026A0000ED0FFE70298406801218907884207D0D1
:1026B000FFE7029840680121C90788420ED1FFE771
:1026C0000298016808690322920790430861029802
:1026D0004268016808691043086112E002980168C5
:1026E00008690322920790430861694908680F222C
:1026F000920490430860029842680868104308609A
:10270000FFE7FFE702980168C86818229043C86095
:10271000029882680168C8681043C860FFE75C4996
:10272000086801225206904308600298406B4206F6
:10273000086810430860029800688068C00000289C
:1027400008D4FFE702980168886801221207104345
:102750008860FFE702980168C8684E4A1040C86068
:1027600002980090C2680169891E4B425941890054
:102770000A432021415C49030A432C21415C490062
:102780000A43016B0A43816989030A43C169C9038A
:102790000A430168C8681043C8600298406AFF2174
:1027A000C231884209D0FFE70298426A816A0A432F
:1027B0000168C8681043C860FFE702982121405CA7
:1027C00001281AD1FFE702982021405C002808D197
:1027D000FFE702980168C868012212041043C8602C
:1027E0000AE00299486D2022104348650299886DDD
:1027F000012210438865FFE7FFE70298C06B0128BC
:1028000018D1FFE7029801680869FF2292009043FF
:1028100008610298026C416C0A43816C0A430168AA
:102820000869104308610298016808690122104391
:1028300008610EE0029800680069C007002807D010
:10284000FFE7029801680869012290430861FFE7E9
:10285000FFE702980168486907229043486102989F
:10286000826B0168486910434861029900208865BD
:102870000299496D0122114302229143029A516546
:1028800003A90870FFE703A8007804B080BDC04624
:10289000082701401902FEFF80B58AB00990002088
:1028A00008900790069005900490099800682249C6
:1028B00088423FD1FFE721490868012252021043B4
:1028C0000860FFE71E48026801210A4302600068B1
:1028D000084003900398FFE7032004900590002030
:1028E000019006900520000704A900F0BDFA0199A7
:1028F00014480290144A026041608160C1608021E6
:10290000016101210A0242618A0282612022C261C0
:102910004903016200F018FA002803D0FFE7FFF72F
:102920007DFDFFE7FFE709980649C16409988862C1
:10293000FFE7FFE70AB080BD0024014034100240E9
:102940002C100240CC0000200800024080B586B068
:102950000490039100200290019004984069082897
:1029600003D1FFE70820019019E004980068C068CF
:10297000C00700280FD0FFE70499486D20221043BC
:102980004865FFE70499502200208854FFE705A915
:102990000120087086E00C200190FFE7FFE700F0BF
:1029A00015FC0290FFE7049800680068019908424E
:1029B0002AD1FFE70398401C002824D0FFE70398A2
:1029C000002808D0FFE700F001FC0299401A0399A3
:1029D000884217D9FFE70498006800680199084207
:1029E0000FD1FFE70499486D042210434865FFE7C3
:1029F0000499502200208854FFE705A9032008709D
:102A000050E0FFE7FFE7CEE70499486D012252024C
:102A10001043486504980068C0680005800F0028CE
:102A200032D1FFE704982021405C00282CD1FFE739
:102A30000498006800680007002824D5FFE7049880
:102A40000068806804210840800800280FD1FFE753
:102A50000498016848680C22904348600498406DCF
:102A60000121084309028843049948650AE0049952
:102A7000486D2022104348650499886D0122104357
:102A80008865FFE7FFE7FFE704988069002805D124
:102A9000FFE7049801680C200860FFE705A9002003
:102AA0000870FFE705A8007806B080BD80B584B047
:102AB000029001A900200870029800688068042133
:102AC0000840800800283FD1FFE7FFE70298502127
:102AD000405C012804D1FFE703A9022008703BE015
:102AE0000299502201208854FFE7FFE70298C0694D
:102AF000012806D0FFE70298FFF716FB01A908702E
:102B0000FFE701A8007800281DD1FFE70298406D7B
:102B100001210902084312490840029948650299B7
:102B200000208865FFE70299502200208854FFE7C3
:102B3000029801681C2008600298016888680422D5
:102B400010438860FFE703E001A902200870FFE757
:102B5000019803A90870FFE703A8007804B080BDBE
:102B6000FEF1FFFF80B584B0029001A9002008703B
:102B7000FFE702985021405C012804D1FFE703A938
:102B8000022008702DE00299502201208854FFE7AE
:102B9000FFE70298FFF7E5F9014601A80170007808
:102BA000002814D1FFE70298FFF752FA014601A866
:102BB00001700078002809D1FFE70298406D0121DB
:102BC00008430902884302994865FFE7FFE7FFE7EA
:102BD0000299502200208854FFE7019803A9087049
:102BE000FFE703A8007804B080BD80B584B00390EF
:102BF0000398006C006802900398006800680190D8
:102C000002980399496C1C221140C84040070028D3
:102C100026D5FFE701A800784007002820D5FFE768
:102C20000398006800688006002807D4FFE703982F
:102C300001680868042290430860FFE703994A6C22
:102C40001C20024004209040096C48600398006BEF
:102C5000002804D0FFE70398016B8847FFE770E086
:102C600002980399496C1C221140C8408007002833
:102C700030D5FFE701A80078800700282AD5FFE7B4
:102C8000039800680068800600280BD4FFE70398CB
:102C9000016808680A2290430860039925220120F0
:102CA0008854FFE703994A6C1C20024002209040A0
:102CB000096C4860FFE70399242200208854FFE74D
:102CC0000398C06A002804D0FFE70398C16A8847C8
:102CD000FFE735E002980399496C1C221140C84077
:102CE000000700282AD5FFE701A800780007002880
:102CF00024D5FFE70398016808680E229043086016
:102D0000039A536C1C200340012001469940126C29
:102D100051600399C863039925228854FFE70399FA
:102D2000242200208854FFE70398406B002804D039
:102D3000FFE70398416B8847FFE700E0FFE7FFE705
:102D4000FFE704B080BD000080B584B00290029817
:102D5000002804D1FFE703A90120087055E002987C
:102D6000009000682B4940181421FDF783FB00995F
:102D700080004864029928480864029925220220AC
:102D8000885402980068006801900198234908401F
:102D9000019002988168C268114302691143426937
:102DA000114382691143C2691143006A01430198CA
:102DB00008430190019802990968086002988068A8
:102DC00001218903884213D0FFE70298406C1C233D
:102DD00018400F2282401249086890430860029808
:102DE0004268406C18408240086810430860FFE762
:102DF00002990020C863029A25230121D154029927
:102E00002422885403A90870FFE703A8007804B0BF
:102E100080BDC046F8FFFDBF000002400F80FFFFED
:102E2000A800024080B584B0039000F0CFF9029072
:102E3000039801900198401C002806D0FFE709483C
:102E40000178019840180190FFE7FFE700F0BEF914
:102E50000299401A0199884201D2FFE7F6E704B0CF
:102E600080BDC046050000208CB00B900A91002068
:102E7000099008900790FFE70A9800680999C840F0
:102E8000002800D162E10A980068099A0121914066
:102E9000084008900898002800D153E10A9840683B
:102EA00003210840012807D0FFE70A984068032162
:102EB000084002282CD1FFE70B98806807900998FA
:102EC0004000032181400798884307900A98C16811
:102ED00009984000814007980843079007980B998C
:102EE00088600B98406807900998012181400798F5
:102EF000884307900A984068102108400109099802
:102F0000814007980843079007980B994860FFE7AE
:102F10000A98406803210840032816D0FFE70B9861
:102F2000C0680790099840000321814007988843B2
:102F300007900A98816809984000814007980843E3
:102F4000079007980B99C860FFE70A98406803212B
:102F50000840022820D1FFE70B980999C908890089
:102F60004018006A079009984007C00E0F21814061
:102F70000798884307900A98016909984007C00E8E
:102F8000814007980843079007980B99099AD2083F
:102F9000920089180862FFE70B980068079009986B
:102FA0004100032002468A400799914307910A99FC
:102FB00049680140099840008140079808430790FC
:102FC00007980B9908600A9880798007002800D13B
:102FD000B7E05F490868012210430860099803219F
:102FE00088435C494058079009988007000F0F21DB
:102FF00081400798884307900B980521090788426C
:1030000003D1FFE70020069038E00B985249884230
:1030100003D1FFE7012005902DE00B984F4988422E
:1030200003D1FFE70220049022E00B984C4988422C
:1030300003D1FFE70320039017E00B98494988422A
:1030400003D1FFE7042002900CE00B99464A0520CB
:10305000062300939142019001D0009801900198BD
:103060000290FFE702980390FFE703980490FFE7C0
:1030700004980590FFE705980690FFE706990998E0
:103080008007000F81400798084307900798099927
:10309000032291432F4A88503448006807900899CA
:1030A0000798884307900A988079C006002805D5BC
:1030B000FFE70899079808430790FFE707982B490F
:1030C00008602B4800680790089907988843079084
:1030D0000A9880798006002805D5FFE708990798A7
:1030E00008430790FFE707982149086021480068D6
:1030F000079008990798884307900A988079800775
:10310000002805D5FFE70899079808430790FFE7CF
:1031100007981849086018480068079008990798A8
:10312000884307900A988079C007002805D0FFE7F8
:103130000899079808430790FFE707980E49086029
:10314000FFE7FFE70998401C099095E60CB070472F
:1031500034100240080001400004005000080050F4
:10316000000C005000100050001C005008040140EA
:103170000C040140040401400004014083B00290AB
:1031800001A80180029949690091009A01881046BE
:1031900008400004914340180299886103B07047C9
:1031A00083B0029001A80180684602700078002870
:1031B00005D0FFE701A800880299886104E001A812
:1031C000008802998862FFE703B0704701480068F1
:1031D0007047C046E407002010B583B0019000910D
:1031E00001984121405C202839D1FFE7FFE7019891
:1031F0004021405C012804D1FFE702A902200870A9
:1032000031E00199402201208854FFE7FFE701994E
:1032100041222420885401980168086801239843BA
:1032200008600198016808681C03A0430860009CBE
:1032300001980168086820430860019801680868DF
:1032400018430860019920208854FFE70199402223
:1032500000208854FFE702A90020087003E002A9BB
:1032600002200870FFE702A8007803B010BD84B008
:103270000290019102984121405C20283FD1FFE754
:10328000FFE702984021405C012804D1FFE703A931
:103290000220087037E00299402201208854FFE79D
:1032A000FFE70299412224208854029801680868A7
:1032B0000123984308600298006800680090009815
:1032C0000F210902884300900198010200980843E9
:1032D00000900098029909680860029801680868DF
:1032E00018430860029920208854FFE70299402281
:1032F00000208854FFE703A90020087003E003A919
:1033000002200870FFE703A8007804B070470000AF
:1033100080B582B000900098002804D1FFE701A991
:10332000012008707EE000984121405C002808D10F
:10333000FFE70099402200208854009800F096F999
:10334000FFE700994122242088540098016808680A
:10335000012290430860009948680F231B06984398
:1033600009680861009801688868D2039043886002
:103370000098C068012808D1FFE7009988680122F9
:10338000D20310430968886007E000998868212209
:103390009202104309688860FFE70098C06802281D
:1033A00008D1FFE70098016848680122D202104363
:1033B000486007E00098016848680122D202904303
:1033C0004860FFE7009801684868184A1043486061
:1033D00000980168C8680122D3039843C860009927
:1033E00008694B6918438B691B0218430968C86058
:1033F0000099C8690B6A1843096808600098016859
:10340000086810430860009900204864009A41232E
:103410002021D1540099086300994222885401A9BF
:103420000870FFE701A8007802B080BD00800002AC
:1034300010B588B00A9C069005A80180049203A8E4
:10344000038006984121405C202800D001E1FFE77D
:1034500006984021405C012804D1FFE707A902201B
:103460000870FAE00699402201208854FFE7FFE740
:10347000FFF7ACFE02900698029900910122D10359
:10348000192301F023FD002804D0FFE707A901203C
:103490000870E2E0069941222120885406994222D0
:1034A000102088540699002048640499069A5162B5
:1034B0000399069A5185069948630698408D000A3B
:1034C000002807D0FFE70699FF20088501200006A5
:1034D000019007E00698408D069908850120400676
:1034E0000190FFE70698008D00281DD0FFE70699A0
:1034F000486A0078096888620699486A401C4862F0
:103500000699488D401E48850699088D401E0885FD
:10351000069805A90988028D521C019B514C009404
:10352000D2B201F0A9FC0AE0069805A90988282270
:10353000825C019B4B4C009401F09EFCFFE7FFE78F
:103540000698408D00285DD0FFE706980A99029AF8
:1035500001F06DFD002804D0FFE707A901200870E5
:103560007BE00699486A0078096888620699486A8B
:10357000401C48620699488D401E48850699088D72
:10358000401E08850698408D00283AD0FFE706982F
:10359000008D002835D1FFE706980A9B029900911B
:1035A0008021002201F092FC002804D0FFE707A947
:1035B0000120087051E00698408D000A00280FD0C5
:1035C000FFE70699FF200885069805A909882822A3
:1035D000825C0023009301231B0601F04DFC0FE0E9
:1035E0000698408D06990885069805A9098828221D
:1035F000825C0023009301235B0601F03DFCFFE7A2
:10360000FFE79DE706980A99029A01F0C0FC00289E
:1036100004D0FFE707A9012008701EE006980168A2
:103620002020C86106990A6851680F4B1940516003
:103630000699412288540699422200208854FFE7C7
:103640000699402200208854FFE707A9002008704F
:1036500003E007A902200870FFE707A8007808B078
:1036600010BDC0460020008000E800FE80B588B094
:103670000790002006900590049003900290079810
:1036800000681349884220D1FFE7FFE7114802682C
:1036900002210A4302600068084001900198FFE798
:1036A00003208102029112210391002104910590CF
:1036B00006200690084802A9FFF7D6FB3D49086896
:1036C0000122920510430860FFE708B080BDC046A4
:1036D000005800402C100240000400502C48027892
:1036E00002490868801808607047C046E407002057
:1036F00080B582B001A9002008700A4A11684023F1
:103700001943116000F010F8002804D0FFE701A968
:103710000120087002E000F03FF8FFE701A8007800
:1037200002B080BD0020024080B584B002901748EE
:1037300000680190164801787D20C000FCF79AFED1
:1037400001460198FCF796FE01F06EF8002804D0BF
:10375000FFE703A90120087014E00298032809D8A4
:10376000FFE702990022D04300F031F8029809499E
:10377000086003E003A90120087003E003A900200A
:103780000870FFE703A8007804B080BD00000020A7
:1037900005000020080000200549086801221043A8
:1037A0000860E74908681207104308607047C04680
:1037B000341002403810024080B582B0014601A8A2
:1037C00001700021405603F0D5F802B080BD80B5ED
:1037D00084B0034603A80370029101920021405671
:1037E000029903F0DDF804B080BD000080B586B01A
:1037F000049001A900200870049800682021084066
:10380000202806D0FFE7049840780007002800D45D
:103810001FE1049800788006002801D5FFE7FFE744
:10382000049840780007002801D5FFE7FFE7C44867
:103830000068C000002809D4FFE7C14A11680120D0
:1038400003071943116001A90870FFE7BD4800682C
:10385000C00500281DD4FFE7BA49086801221202FA
:1038600010430860FFF7B2FC0390FFE7B54800681B
:10387000C00500280CD4FFE7FFF7A8FC0399401A05
:10388000652804D3FFE705A90320087053E1EDE79D
:10389000FFE7AD48006803210A0510400290029836
:1038A000049949681140884209D1FFE702980499B8
:1038B0008968032212051140884214D0FFE704985A
:1038C000406803210904084088420BD1FFE79E4865
:1038D00000688003002804D5FFE705A901200870CF
:1038E00029E1FFE7FFE79948006803210904084040
:1038F00002900298002851D0FFE702980499496885
:10390000032212041140884207D0FFE704980068A0
:103910002021084020280FD0FFE7029804998968E9
:10392000032212041140884238D0FFE704984078FF
:103930000007002832D5FFE78449086803221204F3
:103940009043029008680122D2041043086008687E
:10395000904308600298086002A84078C0070028D9
:103960001BD0FFE7FFF732FC0390FFE777480068C2
:10397000012149020840400A00280DD1FFE7FFF766
:1039800025FC0399401A7349884204D3FFE705A92F
:1039900003200870CFE0E9E7FFE7FFE704984078ED
:1039A0000007002821D5FFE7FFE7FFE704988068BC
:1039B00003210904084088420BD1FFE762490868E7
:1039C000032213059843049A92681A4080180860ED
:1039D000FFE7FFE7049882680320000402405B4988
:1039E000086810430860FFE7FFE704980078800646
:1039F000002821D5FFE7FFE7FFE70498406803218F
:103A00000904084088420BD1FFE74F4908680322A8
:103A100013059843049A52681A4080180860FFE71B
:103A2000FFE7049842680320000402404749086801
:103A300010430860FFE7FFE701A80078012807D1DD
:103A4000FFE73F4908680122120790430860FFE73B
:103A5000FFE704980078C007002809D0FFE73C4939
:103A6000086803229043049AD26810430860FFE775
:103A7000049800788007002809D5FFE734490868D2
:103A80000C229043049A126910430860FFE70498DF
:103A90000078400700280AD5FFE72D49086803226F
:103AA00092029043049A526910430860FFE7049819
:103AB0000078000700280AD5FFE725490868032297
:103AC00012039043049A926910430860FFE7049838
:103AD0004078C00700280AD0FFE71D490868032284
:103AE00012049043049AD26910430860FFE70498D7
:103AF0000078400600280AD5FFE71549086801222A
:103B000092069043049A526A10430860FFE70498B3
:103B10000078000600280AD5FFE70D49086803224F
:103B200092049043049A126A10430860FFE705A9C3
:103B300000200870FFE705A8007806B080BDC046E9
:103B40003810024000700040001002405010024047
:103B50004C1002408913000080B586B00490039198
:103B60000498002804D1FFE705A90120087062E14C
:103B70000398B349096801221140884221D9FFE71F
:103B8000AF49086801229043039A10430860FFF789
:103B90001DFB0290FFE7AA48006801210840039935
:103BA00088420DD0FFE7FFF711FB0299401AA549A3
:103BB000884204D3FFE705A9032008703BE1EAE748
:103BC000FFE7049800788007002809D5FFE7F3494C
:103BD0000868F0229043049A926810430860FFE757
:103BE00004980078C007002800D1BCE00498406821
:103BF00002280ED1FFE7EB48006801214904084084
:103C0000400C002804D1FFE705A90120087012E14B
:103C100034E00498406803280ED1FFE7E1480068CB
:103C2000012149060840400E002804D1FFE705A9FC
:103C300001200870FFE020E00498406801280DD1C1
:103C4000FFE7D8480068042108408008002804D114
:103C5000FFE705A901200870EDE00DE0D1480068FC
:103C6000012149020840400A002804D1FFE705A9C4
:103C700001200870DFE0FFE7FFE7FFE7C7490868BA
:103C800003229043049A526810430860FFF79EFA9B
:103C9000029004984068022816D1FFE7FFE7BF486A
:103CA00000680C21084008280DD0FFE7FFF78EFAC6
:103CB0000299401A6349884204D3FFE705A903200B
:103CC0000870B8E0EBE74DE004984068032816D18F
:103CD000FFE7FFE7B14800680C2108400C280DD031
:103CE000FFE7FFF773FA0299401A5649884204D356
:103CF000FFE705A9032008709DE0EBE731E0049899
:103D00004068012816D1FFE7FFE7A44800680C21AE
:103D1000084004280DD0FFE7FFF758FA0299401A2F
:103D20004849884204D3FFE705A90320087082E0D0
:103D3000EBE715E0FFE7994800680007800F0028CF
:103D40000DD0FFE7FFF742FA0299401A3D49884239
:103D500004D3FFE705A9032008706CE0EBE7FFE759
:103D6000FFE7FFE7FFE703983549096801221140A3
:103D7000884221D2FFE73249086801229043039A22
:103D800010430860FFF722FA0290FFE72C48006812
:103D900001210840039988420DD0FFE7FFF716FA8A
:103DA0000299401A2749884204D3FFE705A9032056
:103DB000087040E0EAE7FFE7049800784007002831
:103DC0000AD5FFE775490868072212029043049A52
:103DD000D26810430860FFE70498007800070028C5
:103DE0000BD5FFE76D4908680722D2029043049A79
:103DF0001269D20010430860FFE700F04DF86749F0
:103E00000968C9B20A091049895CC84012490860AA
:103E10000E480068FFF788FC014601A80170007891
:103E2000002804D0FFE7019805A9087003E005A960
:103E300000200870FFE705A8007806B080BDC046E6
:103E40000020024089130000707000080800002064
:103E5000014800687047C0460000002080B5FFF7A9
:103E6000F7FF4E4909680722120211400A0A094960
:103E7000895CC84080BDC04680B5FFF7E9FF47496F
:103E800009680722D2021140CA0A0249895CC84067
:103E900080BDC0468070000880B588B03F4800688B
:103EA000079007980C21084001900C2866D80198CB
:103EB000810001A0405887467B3F00087D3F0008F5
:103EC0007D3F00087D3F0008ED3E00087D3F000873
:103ED0007D3F00087D3F0008073F00087D3F000848
:103EE0007D3F00087D3F00080D3F00082D48006819
:103EF000C006002803D5FFE72C48029002E02A48BC
:103F00000290FFE746E02A48029043E007980F211D
:103F100089040840810C2248405C069007980321E0
:103F200089050840800D401C05901C480068C003AE
:103F3000002808D5FFE706991D4848430599FCF776
:103F400099FA049016E017480068C006002808D5C2
:103F5000FFE70699154848430599FCF78BFA04904A
:103F600007E00699104848430599FCF783FA049046
:103F7000FFE7FFE7049802900CE0FFE70D480068B8
:103F800080B2400B03900398411C01208840C0037D
:103F90000290FFE7029808B080BDC0460C100240B6
:103FA00088700008001002400024F40000093D0061
:103FB00000127A000410024010B58AB008900898E8
:103FC000002805D1FFE709A90120087000F015FCC1
:103FD000FD4801680C221140049100680121090488
:103FE0000840039008980078C007002800D18DE0B1
:103FF000049808280AD0FFE704980C2819D1FFE795
:10400000039801210904884213D1FFE7EF480068B3
:10401000012149040840400C002809D0FFE7089816
:104020004068002804D1FFE709A901200870E4E3F3
:104030006BE0FFE70898406801210904884207D136
:10404000FFE7E2490868012212041043086021E0FA
:10405000089840680521090488420BD1FFE7DB4935
:10406000086801229304184308600868120410438A
:1040700008600EE0D54908680122130498430860DF
:1040800008681840029002980868920490430860FB
:10409000FFE7FFE7FFE70898406800281AD0FFE72E
:1040A000FFF794F80790FFE7C8480068012149042A
:1040B0000840400C00280CD1FFE7FFF787F807996C
:1040C000401A652804D3FFE709A90320087094E388
:1040D000EAE719E0FFF77AF80790FFE7BB480068C6
:1040E000012149040840400C00280CD0FFE7FFF7ED
:1040F0006DF80799401A652804D3FFE709A9032042
:1041000008707AE3EAE7FFE7FFE7FFE7089800783F
:104110008007002800D4A8E00898C068069006A888
:1041200000788006002809D5FFE7A84A10682021FA
:1041300008431060069888430690FFE70498042817
:1041400008D0FFE704980C2841D1FFE70398002826
:104150003DD1FFE79D480068042108408008002801
:1041600008D0FFE70698002804D1FFE709A901203D
:10417000087042E3964908681F2212029043089A89
:10418000126912021043086090490868092290439E
:10419000069A10430860FFE7FFF77EFE8A49096828
:1041A000C9B20A098B49895CC8408B4908608B48B1
:1041B0000068FFF7B9FA014605A8017000780028E9
:1041C00004D0FFE7059809A9087016E34CE00698AB
:1041D00000282AD0FFE77D49086809229043069A03
:1041E00010430860FEF7F2FF0790FFE7774800688A
:1041F00004210840800800280CD1FFE7FEF7E6FF05
:104200000799401A032804D3FFE709A9032008707F
:10421000F3E2EBE76E4908681F2212029043089A06
:1042200012691202104308601DE068490868012203
:1042300090430860FEF7CAFF0790FFE763480068F5
:1042400004210840800800280CD0FFE7FEF7BEFFDD
:104250000799401A032804D3FFE709A9032008702F
:10426000CBE2EBE7FFE7FFE7FFE708980078C0063F
:10427000002800D4A1E00498002845D1FFE7534866
:104280000068012149020840400A002809D0FFE7E0
:104290000898C069002804D1FFE709A90120087027
:1042A000ABE24B490868072252039043089A526ACE
:1042B000104308600868FF2212069043089A126AA9
:1042C0001206801808600898406A400B411C0120C3
:1042D0008840C0033C490968C9B20A093D49895C64
:1042E000C8403D4908603D480068FFF71DFA014697
:1042F00005A801700078002804D0FFE7059809A9F7
:1043000008707AE2FFE757E00898C069002832D0C9
:10431000FFE72E4908680122120210430860FEF7E9
:1043200055FF0790FFE7294800680121490208402E
:10433000400A00280CD1FFE7FEF748FF0799401A12
:10434000032804D3FFE709A90320087055E2EAE730
:104350001F490868072252039043089A526A104383
:1043600008600868FF2212069043089A126A120633
:10437000801808601FE01549086801221202904366
:104380000860FEF723FF0790FFE71048006801214F
:1043900049020840400A00280CD0FFE7FEF716FF4C
:1043A0000799401A032804D3FFE709A903200870DE
:1043B00023E2EAE7FFE7FFE7FFE708980078000756
:1043C00000284FD50CE0C0460C10024000100240FF
:1043D0000410024070700008000000200800002057
:1043E0000898406900281ED0FFE7FD4908680122AF
:1043F00010430860FEF7EAFE0790FFE7F848006800
:1044000002210840400800280CD1FFE7FEF7DEFE3D
:104410000799401A032804D3FFE709A9032008706D
:10442000EBE1EBE71DE0F9490868012290430860E1
:10443000FEF7CCFE0790FFE7F44800680221084031
:10444000400800280CD0FFE7FEF7C0FE0799401A8D
:10445000032804D3FFE709A903200870CDE1EBE7A7
:10446000FFE7FFE7089800784007002800D4BBE08A
:1044700001A900200870E6480068C000002809D49F
:10448000FFE7E34A1168012003071943116001A9FE
:104490000870FFE7DF480068C00500281DD4FFE76B
:1044A000DC4908680122120210430860FEF78EFE04
:1044B0000790FFE7D7480068C00500280CD4FFE745
:1044C000FEF784FE0799401A652804D3FFE709A97F
:1044D0000320087091E1EDE7FFE7FFE708988068A7
:1044E00001210902884207D1FFE7C8490868012273
:1044F0001202104308602EE00898806800280BD153
:10450000FFE7C2490868012213029843086008685F
:104510009202904308601DE0089880680521090216
:1045200088420BD1FFE7B94908680122930218437A
:10453000086008681202104308600AE0B34908687E
:1045400001221302984308600868920290430860B1
:10455000FFE7FFE7FFE7FFE70898806800281BD028
:10456000FFE7FEF733FE0790FFE7A8480068012148
:1045700049020840400A00280DD1FFE7FEF726FE59
:104580000799401AA449884204D3FFE709A90320E8
:10459000087032E1E9E71AE0FEF718FE0790FFE73E
:1045A0009A480068012149020840400A00280DD0BD
:1045B000FFE7FEF70BFE0799401A9749884204D39C
:1045C000FFE709A90320087017E1E9E7FFE701A861
:1045D0000078012807D1FFE7F64908680122120791
:1045E00090430860FFE7FFE70898007880060028FE
:1045F00054D5FFE708988069002829D0FFE7FFE736
:1046000086490868012210430860864908681043FB
:10461000086083490868520310430860FFE7FEF70B
:10462000D5FD0790FFE77D4800680221084040085B
:1046300000280CD1FFE7FEF7C9FD0799401A0328AF
:1046400004D3FFE709A903200870D6E0EBE724E0D4
:10465000FFE77249086801229043086070490868C2
:10466000520390430860FFE7FEF7B0FD0790FFE7B5
:104670006A48006802210840400800280CD0FFE783
:10468000FEF7A4FD0799401A032804D3FFE709A900
:1046900003200870B1E0EBE7FFE7FFE70898806AC6
:1046A000002800D1A5E004980C2872D0FFE70898F4
:1046B000806A02284CD1FFE753490868012212069C
:1046C00090430860FEF782FD0790FFE74E480068C0
:1046D000012149060840400E00280CD0FFE7FEF7F4
:1046E00075FD0799401A032804D3FFE709A90320A1
:1046F000087082E0EAE743490868FD22120490430B
:10470000089BDA6A1C6B22435B6B1A4310430860F8
:104710003D4908680122120610430860FEF756FD65
:104720000790FFE738480068012149060840400E1D
:1047300000280CD1FFE7FEF749FD0799401A03282E
:1047400004D3FFE709A90320087056E0EAE71FE059
:104750002D4908680122120690430860FEF736FDD5
:104760000790FFE728480068012149060840400EED
:1047700000280CD0FFE7FEF729FD0799401A03280F
:1047800004D3FFE709A90320087036E0EAE7FFE752
:104790002EE00898806A012804D1FFE709A90120CA
:1047A00008702AE017480068039003980121090463
:1047B00008400899C96A884214D1FFE703980F217D
:1047C000890408400899096B88420BD1FFE70398D8
:1047D0000321890508400899496B884206D001E009
:1047E0005010024009A90120087006E0FFE7FFE72A
:1047F000FFE709A900200870FFE709A800780AB0C0
:1048000010BDC0460C100240001002405010024083
:104810003810024000700040891300000810024068
:10482000200001403410024080B582B00190019810
:1048300001F002FB02B080BD85B003900291FFE75A
:1048400003983821405C012804D1FFE704A9022025
:10485000087053E00399382201208854FFE7FFE7EE
:104860000399392202208854039800684068019017
:104870000398006880680090019870218843019037
:10488000029801680198084301900198039909680A
:1048900048600398006801218907884212D0FFE729
:1048A00003980068174988420CD0FFE70398006816
:1048B0001549884206D0FFE70398006813498842EB
:1048C0000ED1FFE70098802188430090029841684C
:1048D0000098084300900098039909688860FFE7F2
:1048E0000399392201208854FFE7039938220020D8
:1048F0008854FFE704A900200870FFE704A80078A7
:1049000005B0704700040040000801400014014059
:1049100080B582B000900098002804D1FFE701A97B
:104920000120087030E000983921405C002808D14F
:10493000FFE70099382200208854009800F028F8FA
:10494000FFE70099392202208854009901C901F03B
:10495000EFFA00993E2201208854FFE700993A229D
:104960000120885400993B22885400993C228854A5
:1049700000993D228854FFE700993922012088548C
:1049800001A900200870FFE701A8007802B080BDEF
:1049900081B00090009800680549884206D1FFE781
:1049A0004B490868102210430860FFE701B07047C8
:1049B000001000403810024080B582B0009000988E
:1049C000002804D1FFE701A90120087048E0009801
:1049D0008069002801D0FFE700E0FFE70098C06F82
:1049E000002808D1FFE70099782200208854009819
:1049F00000F03AF8FFE700992420C86700980168A2
:104A000008680122904308600098406A002804D09A
:104A1000FFE7009801F0F4FAFFE7009801F0A4FC2A
:104A2000012804D1FFE701A90120087018E00098CF
:104A3000016848680922D2029043486000980168E2
:104A400088682A22904388600098016808680122DB
:104A500010430860009801F081FB01A90870FFE78E
:104A600001A8007802B080BD80B588B00790002012
:104A700006900590049003900290079800681349EF
:104A8000884221D1FFE712490868012252041043ED
:104A90000860FFE70F48026801210A4302600068CE
:104AA000084001900198FFE70C200290022003903B
:104AB00000200490032005900420069005200007A4
:104AC00002A9FEF7D1F9FFE708B080BD004400401D
:104AD000381002402C10024010B58AB0089007919F
:104AE00006A8028005930898C06F202800D09BE09C
:104AF0000798002805D0FFE706A80088002804D101
:104B0000FFE709A90120087092E008988068012158
:104B10000903884210D1FFE70898006900280BD1EB
:104B2000FFE707A80078C007002804D0FFE709A91D
:104B3000012008707CE0FFE708998422002088505B
:104B400008992120C867FEF741FB02900698089952
:104B500050228852069808995222885208988068F4
:104B60000121090388420AD1FFE70898006900285B
:104B700005D1FFE7002004900798039004E0079810
:104B8000049000200390FFE7FFE708985221405A65
:104B9000002830D0FFE70898029B059900918021FA
:104BA000002201F063FE002807D0FFE708992020CB
:104BB000C86709A9032008703AE0049800280BD1BF
:104BC000FFE7039800881C49084008990968886233
:104BD0000398801C039008E00498007808990968FD
:104BE00088620498401C0490FFE708995222885A72
:104BF000401E8852C9E70898029B05990091402100
:104C0000002201F033FE002807D0FFE7089920209A
:104C1000C86709A9032008700AE008992020C8671E
:104C200009A90020087003E009A902200870FFE725
:104C300009A800780AB010BDFF010000FFE7FEE7F9
:104C400081B0009000980068806902210840400807
:104C5000002805D0FFE70098016800208862FFE780
:104C6000009800688069C007002807D1FFE7009816
:104C700001688869012210438861FFE701B070472D
:104C800080B58AB009900891079206A900200870A3
:104C9000099909688969059104900798039005A806
:104CA0000078C006002800D484E00998016810202C
:104CB000C861FFE709980068806920210840410920
:104CC00000200029009006D1FFE706A800784142A5
:104CD00048410090FFE70098C007002858D0FFE740
:104CE0000898401C002852D0FFE7FEF76FFA03999E
:104CF000401A0899884204D8FFE70898002845D14F
:104D0000FFE7099800684068012189030840029084
:104D100009984221405C01A90870099800688069DF
:104D200080B2C00B002816D0FFE70298012189034A
:104D3000884210D0FFE701A8007820280BD0FFE7B9
:104D40000998016848680122920310434860FEF701
:104D50003DFA0390FFE7FFE709980068806920218A
:104D600008404009002810D1FFE7FEF72FFA039909
:104D7000401A1A2808D3FFE704982021084304901A
:104D800006A90120087000E0E6E7FFE7FFE791E7EA
:104D900006A80078002805D1FFE7099801682020BF
:104DA000C861FFE7049804210843049006A9012084
:104DB0000870FFE7099800688069059005A84078A9
:104DC000C00700280BD0FFE704990120014304919C
:104DD00009990A680102D16106A90870FFE705A8D0
:104DE0004078400700280CD5FFE7049808210843C5
:104DF00004900998026801208102D16106A9087017
:104E0000FFE705A84078800700280CD5FFE7049845
:104E10000221084304900998026801204102D161EF
:104E200006A90870FFE706A8007800281DD0FFE754
:104E30000998FFF705FF0998016848680D4A104076
:104E40004860049A0999486C1043486409994122C2
:104E5000202088540999422200208854FFE70999AC
:104E6000402200208854FFE7FFE706A800780AB038
:104E700080BDC04600E800FE10B585B0079C0490D8
:104E800003A8018002A90A70019300880D4A10400E
:104E9000097809044018019908430799084301213A
:104EA000C907884300900498006840680799490D35
:104EB00088430549084000990843049909684860F7
:104EC00005B010BDFF030000009C00FC10B586B0CB
:104ED000089C0490039102A802700193FFE70498D4
:104EE0000068806903990840401A4142484102A97C
:104EF0000978884243D1FFE704980199089AFFF79F
:104F0000BFFE002804D0FFE705A9012008703AE0A1
:104F10000198401C002831D0FFE7FEF757F90899A7
:104F2000401A0199884204D8FFE70198002824D14B
:104F3000FFE704980068806903990840401A4142DD
:104F4000484102A90978884216D1FFE7049A516CBA
:104F5000202001435164049941228854049942223B
:104F600000208854FFE70499402200208854FFE77E
:104F700005A90120087006E0FFE7FFE7AFE705A9F4
:104F800000200870FFE705A8007806B010BD80B5C6
:104F900084B0029001910092FFE702980068806956
:104FA000202108404009002839D1FFE702980199E3
:104FB000009AFFF765FE002804D0FFE703A901204F
:104FC000087030E0FEF702F90099401A0199884212
:104FD00004D8FFE70198002820D1FFE70298006875
:104FE0008069202108404009002816D1FFE7029A75
:104FF000516C202001435164029941228854029946
:10500000422200208854FFE7029940220020885461
:10501000FFE703A90120087005E0FFE7BDE703A94A
:1050200000200870FFE703A8007804B080BD80B5B9
:1050300084B0029001910092FFE7029800688069B5
:1050400002210840400800283FD1FFE7029801995B
:10505000009AFFF715FE002804D0FFE703A90120FE
:10506000087036E00198401C00282DD0FFE7FEF7BD
:10507000ADF80099401A0199884204D8FFE70198D9
:10508000002820D1FFE702980068806902210840CB
:105090004008002816D1FFE7029A516C20200143F6
:1050A0005164029941228854029942220020885476
:1050B000FFE70299402200208854FFE703A901205E
:1050C000087006E0FFE7FFE7B7E703A900200870D4
:1050D000FFE703A8007804B080BD000080B584B06D
:1050E00000210091039102911F4801901F4A026024
:1050F000C163031D0322920742608160062282631E
:1051000001220261C160197759779302836241627B
:105110002C23C25408224261016381614163C16151
:10512000FDF762FA002803D0FFE7FDF777F9FFE704
:1051300001200290000303900B4802A9FDF79EF99D
:10514000002803D0FFE7FDF769F9FFE70848029060
:10515000054802A9FDF792F9002803D0FFE7FDF703
:105160005DF9FFE704B080BD70000020002401401D
:105170000200000480B582B0FFE70A4802680121FE
:105180000A4302600068084001900198FFE7092087
:10519000009000221146FEF71AFB0098FEF70CFB68
:1051A00002B080BD3010024080B58CB000200B9062
:1051B0000A90099008900790FFE7204802680421B0
:1051C0000A4302600068084006900698FFE7FFE780
:1051D0001A48026880210A4302600068084005906E
:1051E0000598FFE7FFE71548026801210A430260BE
:1051F0000068084004900498FFE7FFE70F48026842
:1052000002210A4302600068084003900398FFE708
:105210000520000702902021009100220192FDF755
:10522000BFFF009A01990298079201220892099102
:105230000A9107A9FDF718FE0CB080BD2C100240A2
:1052400080B582B016480190164901601649416048
:10525000002181600122C260016141618161C161FF
:105260000162FEF755F8002803D0FFE7FDF7D6F8F6
:10527000FFE70B480021FDF7AFFF002803D0FFE751
:10528000FDF7CCF8FFE706480021FDF7F0FF002806
:1052900003D0FFE7FDF7C2F8FFE702B080BDC046CC
:1052A0001401002000580040583D500080B582B0E5
:1052B0000021019100911048104A02600F224260C3
:1052C00081603122C2604161FFF722FB002803D0D8
:1052D000FFE7FDF7A3F8FFE72020009000200190F2
:1052E00005486946FFF7A8FA002803D0FFE7FDF755
:1052F00095F8FFE702B080BDF802002000100040E2
:1053000080B582B00D4801900D490160E12149024C
:10531000416000218160C16001610C2242618161B4
:10532000C16101624162FFF747FB002803D0FFE73C
:10533000FDF774F8FFE702B080BDC04638030020D7
:1053400000440040FFE7FEE781B069460020088086
:10535000FFE7684600880B4988420BDCFFE7684698
:1053600002880B4900208854FFE70098401C6946DA
:105370000880EEE70449002008700449087001B075
:105380007047C046FF010000610700206007002051
:105390005C05002080B584B003A9087002AA002033
:1053A00010700398507005480068642100917821BE
:1053B0000223FEF73DF804B080BDC0465C07002024
:1053C00083B0024602A802700191019A0021117077
:1053D000019A5170019A9170019AD170019A1171DC
:1053E0000078203800905A2800D92DE300988100D9
:1053F00001A040588746C046CD590008495A0008C8
:10540000495A0008495A0008495A0008495A0008F0
:10541000495A0008495A0008495A0008495A0008E0
:10542000495A0008495A0008495A0008315A0008E8
:10543000E5590008495A00086555000883550008D9
:10544000A1550008C1550008E155000801560008A3
:105450001D5600083B5600085B56000875560008AC
:10546000FF590008495A0008495A0008195A00080B
:10547000495A0008495A0008495A0008935600083A
:10548000495A0008AD560008AF590008C95600082F
:10549000495A0008E5560008035700081D57000840
:1054A0006B5800088B5800083957000853570008FC
:1054B0006F5700088D570008A7570008495A000881
:1054C000C3570008E3570008FF57000819580008A1
:1054D000AB58000833580008495A00084F580008D4
:1054E000C7580008495A0008495A0008495A000894
:1054F000495A0008495A0008495A0008E758000864
:10550000495A0008495A0008495A0008495A0008EF
:10551000495A0008495A0008495A00080359000826
:10552000495A0008495A0008495A0008495A0008CF
:10553000755900085B59000821590008495A0008AC
:10554000495A000893590008495A0008495A000866
:10555000495A0008495A0008495A0008495A00089F
:105560003D59000801993E200870019A512151705F
:10557000019A49219170019A4521D17001990871D0
:1055800063E2019900200870019A42215170019A4A
:105590007F219170019A4021D1700199087154E2E4
:1055A00001994220087001996120487001995120A9
:1055B000887001994920C87001994620087144E219
:1055C00001992120087001994120487001994520D6
:1055D000887001994B20C87001993120087134E21C
:1055E000019918200870019914204870019912201F
:1055F000887001997F20C87001991020087124E2F9
:1056000001992720087001994520487001998870F8
:105610000199C87001993920087116E201993C205E
:10562000087001994A2048700199492088700199B1
:10563000C87001993020087107E2019901200870B3
:1056400001997120487001990920887001990520FD
:10565000C870019903200871F7E10199362008709C
:10566000019A49215170019A9170019AD170019962
:105670000871EAE1019906200870019949204870F3
:105680000199887001992920C87001991E2008711C
:10569000DBE101997E200870019A11215170019A75
:1056A0009170019AD17001990871CEE101993E2063
:1056B0000870019941204870019988700199C8705B
:1056C000019922200871C0E101997F200870019999
:1056D00049204870019988700199C870019941204A
:1056E0000871B2E101993E2008700199412048708B
:1056F0000199492088700199C87001997A20087130
:10570000A3E101997F200870019A08215170019A44
:105710009170019AD1700199087196E10199002068
:105720000870019A41215170019B7F229A70019A61
:10573000D1700199087188E101997F200870019961
:1057400040204870019988700199C87001990871CA
:105750007BE101997F200870019A02215170019B21
:105760000C229A70019AD170019908716DE101992A
:105770007F200870019A04215170019A08219170CC
:10578000019A1021D170019908715EE101993E20C2
:105790000870019A41215170019A9170019AD1705B
:1057A0000199087151E101997F2008700199092040
:1057B0004870019988700199C87001990620087194
:1057C00043E101997F2008700199092048700199EF
:1057D0001920887001992920C87001994620087104
:1057E00033E10199462008700199492048700199D8
:1057F00088700199C87001993120087125E10199DB
:105800000120087001994870019A7F2191700199D7
:10581000C8700199087118E101993F200870019A38
:1058200040215170019A9170019AD17001990871CB
:105830000BE101997F200870019A20215170019B92
:1058400018229A70019AD17001990871FDE00199AE
:1058500007200870019A08215170019B70229A70EC
:10586000019AD17001990871EFE001992020087028
:1058700001994020487001994120887001993F208A
:10588000C870019901200871DFE001997F2008703C
:1058900001990820487001991420887001992220EC
:1058A000C870019941200871CFE001991F2008704C
:1058B000019A20215170019B40229A70019AD17067
:1058C00001990871C1E00199612008700199512086
:1058D000487001994920887001994520C870019944
:1058E00043200871B1E001992020087001995420EB
:1058F0004870019988700199C870019978200871E1
:10590000A3E0019900200870019A44215170019A86
:105910007D219170019A4021D1700199087194E024
:1059200001997C20087001991420487001998870B1
:105930000199C87001990820087186E001994420F6
:105940000870019A64215170019A54219170019A52
:105950004C21D1700199087177E0019938200870C5
:10596000019A44215170019A9170019AD170019964
:1059700008716AE001997C2008700199082048703C
:105980000199042088700199C870019978200871E4
:105990005BE00199482008700199542048700199F2
:1059A00088700199C8700199202008714DE0019913
:1059B0007F200870019941204870019988700199F1
:1059C0002220C87001991C2008713EE00199002036
:1059D000087001994870019988700199C8700199FF
:1059E000087132E0019900200870019A602151701D
:1059F000019A91700199C8700199087125E0019987
:105A000000200870019A36215170019A9170019915
:105A1000C8700199087118E0019914200870019963
:105A20004870019988700199C870019908710CE05B
:105A300001990820087001994870019988700199AE
:105A4000C8700199087100E0FFE703B070470000DB
:105A500080B584B0039003985A4908606420FDF72C
:105A6000E1F9AE20FFF796FC2020FFF793FC02201F
:105A70000190FFF78FFCB020FFF78CFCC820FFF7E8
:105A800089FC00200090FFF785FC1020FFF782FCC6
:105A900040200290FFF77EFC8120FFF77BFC7F20F7
:105AA000FFF778FCA120FFF775FCA620FFF772FC3A
:105AB000A820FFF76FFC1F20FFF76CFCA420FFF766
:105AC00069FCD320FFF766FC0098FFF763FCD52044
:105AD000FFF760FC8020FFF75DFCD920FFF75AFC40
